{
  "_format": "hh-sol-artifact-1",
  "contractName": "DN404Mirror",
  "sourceName": "dn404/src/DN404Mirror.sol",
  "abi": [
    {
      "inputs": [
        {
          "internalType": "address",
          "name": "deployer",
          "type": "address"
        }
      ],
      "stateMutability": "nonpayable",
      "type": "constructor"
    },
    {
      "inputs": [],
      "name": "AlreadyLinked",
      "type": "error"
    },
    {
      "inputs": [],
      "name": "CannotLink",
      "type": "error"
    },
    {
      "inputs": [],
      "name": "NotLinked",
      "type": "error"
    },
    {
      "inputs": [],
      "name": "SenderNotBase",
      "type": "error"
    },
    {
      "inputs": [],
      "name": "SenderNotDeployer",
      "type": "error"
    },
    {
      "inputs": [],
      "name": "TransferToNonERC721ReceiverImplementer",
      "type": "error"
    },
    {
      "anonymous": false,
      "inputs": [
        {
          "indexed": true,
          "internalType": "address",
          "name": "owner",
          "type": "address"
        },
        {
          "indexed": true,
          "internalType": "address",
          "name": "account",
          "type": "address"
        },
        {
          "indexed": true,
          "internalType": "uint256",
          "name": "id",
          "type": "uint256"
        }
      ],
      "name": "Approval",
      "type": "event"
    },
    {
      "anonymous": false,
      "inputs": [
        {
          "indexed": true,
          "internalType": "address",
          "name": "owner",
          "type": "address"
        },
        {
          "indexed": true,
          "internalType": "address",
          "name": "operator",
          "type": "address"
        },
        {
          "indexed": false,
          "internalType": "bool",
          "name": "isApproved",
          "type": "bool"
        }
      ],
      "name": "ApprovalForAll",
      "type": "event"
    },
    {
      "anonymous": false,
      "inputs": [
        {
          "indexed": true,
          "internalType": "address",
          "name": "oldOwner",
          "type": "address"
        },
        {
          "indexed": true,
          "internalType": "address",
          "name": "newOwner",
          "type": "address"
        }
      ],
      "name": "OwnershipTransferred",
      "type": "event"
    },
    {
      "anonymous": false,
      "inputs": [
        {
          "indexed": true,
          "internalType": "address",
          "name": "from",
          "type": "address"
        },
        {
          "indexed": true,
          "internalType": "address",
          "name": "to",
          "type": "address"
        },
        {
          "indexed": true,
          "internalType": "uint256",
          "name": "id",
          "type": "uint256"
        }
      ],
      "name": "Transfer",
      "type": "event"
    },
    {
      "stateMutability": "payable",
      "type": "fallback"
    },
    {
      "inputs": [
        {
          "internalType": "address",
          "name": "spender",
          "type": "address"
        },
        {
          "internalType": "uint256",
          "name": "id",
          "type": "uint256"
        }
      ],
      "name": "approve",
      "outputs": [],
      "stateMutability": "nonpayable",
      "type": "function"
    },
    {
      "inputs": [
        {
          "internalType": "address",
          "name": "nftOwner",
          "type": "address"
        }
      ],
      "name": "balanceOf",
      "outputs": [
        {
          "internalType": "uint256",
          "name": "result",
          "type": "uint256"
        }
      ],
      "stateMutability": "view",
      "type": "function"
    },
    {
      "inputs": [],
      "name": "baseERC20",
      "outputs": [
        {
          "internalType": "address",
          "name": "base",
          "type": "address"
        }
      ],
      "stateMutability": "view",
      "type": "function"
    },
    {
      "inputs": [
        {
          "internalType": "uint256",
          "name": "id",
          "type": "uint256"
        }
      ],
      "name": "getApproved",
      "outputs": [
        {
          "internalType": "address",
          "name": "",
          "type": "address"
        }
      ],
      "stateMutability": "view",
      "type": "function"
    },
    {
      "inputs": [
        {
          "internalType": "address",
          "name": "nftOwner",
          "type": "address"
        },
        {
          "internalType": "address",
          "name": "operator",
          "type": "address"
        }
      ],
      "name": "isApprovedForAll",
      "outputs": [
        {
          "internalType": "bool",
          "name": "result",
          "type": "bool"
        }
      ],
      "stateMutability": "view",
      "type": "function"
    },
    {
      "inputs": [],
      "name": "name",
      "outputs": [
        {
          "internalType": "string",
          "name": "result",
          "type": "string"
        }
      ],
      "stateMutability": "view",
      "type": "function"
    },
    {
      "inputs": [],
      "name": "owner",
      "outputs": [
        {
          "internalType": "address",
          "name": "",
          "type": "address"
        }
      ],
      "stateMutability": "view",
      "type": "function"
    },
    {
      "inputs": [
        {
          "internalType": "uint256",
          "name": "id",
          "type": "uint256"
        }
      ],
      "name": "ownerAt",
      "outputs": [
        {
          "internalType": "address",
          "name": "result",
          "type": "address"
        }
      ],
      "stateMutability": "view",
      "type": "function"
    },
    {
      "inputs": [
        {
          "internalType": "uint256",
          "name": "id",
          "type": "uint256"
        }
      ],
      "name": "ownerOf",
      "outputs": [
        {
          "internalType": "address",
          "name": "result",
          "type": "address"
        }
      ],
      "stateMutability": "view",
      "type": "function"
    },
    {
      "inputs": [],
      "name": "pullOwner",
      "outputs": [],
      "stateMutability": "nonpayable",
      "type": "function"
    },
    {
      "inputs": [
        {
          "internalType": "address",
          "name": "from",
          "type": "address"
        },
        {
          "internalType": "address",
          "name": "to",
          "type": "address"
        },
        {
          "internalType": "uint256",
          "name": "id",
          "type": "uint256"
        }
      ],
      "name": "safeTransferFrom",
      "outputs": [],
      "stateMutability": "payable",
      "type": "function"
    },
    {
      "inputs": [
        {
          "internalType": "address",
          "name": "from",
          "type": "address"
        },
        {
          "internalType": "address",
          "name": "to",
          "type": "address"
        },
        {
          "internalType": "uint256",
          "name": "id",
          "type": "uint256"
        },
        {
          "internalType": "bytes",
          "name": "data",
          "type": "bytes"
        }
      ],
      "name": "safeTransferFrom",
      "outputs": [],
      "stateMutability": "nonpayable",
      "type": "function"
    },
    {
      "inputs": [
        {
          "internalType": "address",
          "name": "operator",
          "type": "address"
        },
        {
          "internalType": "bool",
          "name": "approved",
          "type": "bool"
        }
      ],
      "name": "setApprovalForAll",
      "outputs": [],
      "stateMutability": "nonpayable",
      "type": "function"
    },
    {
      "inputs": [
        {
          "internalType": "bytes4",
          "name": "interfaceId",
          "type": "bytes4"
        }
      ],
      "name": "supportsInterface",
      "outputs": [
        {
          "internalType": "bool",
          "name": "result",
          "type": "bool"
        }
      ],
      "stateMutability": "view",
      "type": "function"
    },
    {
      "inputs": [],
      "name": "symbol",
      "outputs": [
        {
          "internalType": "string",
          "name": "result",
          "type": "string"
        }
      ],
      "stateMutability": "view",
      "type": "function"
    },
    {
      "inputs": [
        {
          "internalType": "uint256",
          "name": "id",
          "type": "uint256"
        }
      ],
      "name": "tokenURI",
      "outputs": [
        {
          "internalType": "string",
          "name": "result",
          "type": "string"
        }
      ],
      "stateMutability": "view",
      "type": "function"
    },
    {
      "inputs": [],
      "name": "totalSupply",
      "outputs": [
        {
          "internalType": "uint256",
          "name": "result",
          "type": "uint256"
        }
      ],
      "stateMutability": "view",
      "type": "function"
    },
    {
      "inputs": [
        {
          "internalType": "address",
          "name": "from",
          "type": "address"
        },
        {
          "internalType": "address",
          "name": "to",
          "type": "address"
        },
        {
          "internalType": "uint256",
          "name": "id",
          "type": "uint256"
        }
      ],
      "name": "transferFrom",
      "outputs": [],
      "stateMutability": "nonpayable",
      "type": "function"
    },
    {
      "stateMutability": "payable",
      "type": "receive"
    }
  ],
  "bytecode": "0x60806040523480156200001157600080fd5b50604051620014c8380380620014c883398181016040528101906200003791906200010b565b80620000486200009060201b60201c565b60010160006101000a81548173ffffffffffffffffffffffffffffffffffffffff021916908373ffffffffffffffffffffffffffffffffffffffff160217905550506200013d565b6000683602298b8c10b01230905090565b600080fd5b600073ffffffffffffffffffffffffffffffffffffffff82169050919050565b6000620000d382620000a6565b9050919050565b620000e581620000c6565b8114620000f157600080fd5b50565b6000815190506200010581620000da565b92915050565b600060208284031215620001245762000123620000a1565b5b60006200013484828501620000f4565b91505092915050565b61137b806200014d6000396000f3fe60806040526004361061010d5760003560e01c80636cef16e61161009557806397e5311c1161006457806397e5311c1461067c578063a22cb465146106a7578063b88d4fde146106d0578063c87b56dd146106f9578063e985e9c51461073657610114565b80636cef16e6146105d257806370a08231146105e95780638da5cb5b1461062657806395d89b411461065157610114565b806318160ddd116100dc57806318160ddd146104e857806323b872dd14610513578063243598791461053c57806342842e0e146105795780636352211e1461059557610114565b806301ffc9a71461041a57806306fdde0314610457578063081812fc14610482578063095ea7b3146104bf57610114565b3661011457005b600061011e610773565b9050600060e061012e6000610784565b901c905063263c69d6810361024a578160000160009054906101000a900473ffffffffffffffffffffffffffffffffffffffff1673ffffffffffffffffffffffffffffffffffffffff163373ffffffffffffffffffffffffffffffffffffffff16146101c6576040517f363cb31200000000000000000000000000000000000000000000000000000000815260040160405180910390fd5b602036103d60003e6004356024018036103d60003e602081033560051b81018036103d60003e5b80821461023f5781358060601c816001168260a01b60a81c811583028284027fddf252ad1be2c89b69c2b068fc378daa952ba7f163c4a11628f55a4df523b3ef600038a45050508160200191506101ed565b600160005260206000f35b630f4599e5810361041857600073ffffffffffffffffffffffffffffffffffffffff168260010160009054906101000a900473ffffffffffffffffffffffffffffffffffffffff1673ffffffffffffffffffffffffffffffffffffffff1614610340578160010160009054906101000a900473ffffffffffffffffffffffffffffffffffffffff1673ffffffffffffffffffffffffffffffffffffffff166102f26004610784565b73ffffffffffffffffffffffffffffffffffffffff161461033f576040517fc59ec47a00000000000000000000000000000000000000000000000000000000815260040160405180910390fd5b5b600073ffffffffffffffffffffffffffffffffffffffff168260000160009054906101000a900473ffffffffffffffffffffffffffffffffffffffff1673ffffffffffffffffffffffffffffffffffffffff16146103ca576040517fbf656a4600000000000000000000000000000000000000000000000000000000815260040160405180910390fd5b338260000160006101000a81548173ffffffffffffffffffffffffffffffffffffffff021916908373ffffffffffffffffffffffffffffffffffffffff160217905550600160005260206000f35b005b34801561042657600080fd5b50610441600480360381019061043c9190610ec2565b61078f565b60405161044e9190610f0a565b60405180910390f35b34801561046357600080fd5b5061046c6107b4565b6040516104799190610fb5565b60405180910390f35b34801561048e57600080fd5b506104a960048036038101906104a4919061100d565b6107ca565b6040516104b6919061107b565b60405180910390f35b3480156104cb57600080fd5b506104e660048036038101906104e191906110c2565b6107e3565b005b3480156104f457600080fd5b506104fd610869565b60405161050a9190611111565b60405180910390f35b34801561051f57600080fd5b5061053a6004803603810190610535919061112c565b610880565b005b34801561054857600080fd5b50610563600480360381019061055e919061100d565b61090f565b604051610570919061107b565b60405180910390f35b610593600480360381019061058e919061112c565b610928565b005b3480156105a157600080fd5b506105bc60048036038101906105b7919061100d565b610962565b6040516105c9919061107b565b60405180910390f35b3480156105de57600080fd5b506105e761097b565b005b3480156105f557600080fd5b50610610600480360381019061060b919061117f565b610aba565b60405161061d9190611111565b60405180910390f35b34801561063257600080fd5b5061063b610ae9565b604051610648919061107b565b60405180910390f35b34801561065d57600080fd5b50610666610b1c565b6040516106739190610fb5565b60405180910390f35b34801561068857600080fd5b50610691610b32565b60405161069e919061107b565b60405180910390f35b3480156106b357600080fd5b506106ce60048036038101906106c991906111d8565b610bcb565b005b3480156106dc57600080fd5b506106f760048036038101906106f2919061127d565b610c50565b005b34801561070557600080fd5b50610720600480360381019061071b919061100d565b610cc1565b60405161072d9190610fb5565b60405180910390f35b34801561074257600080fd5b5061075d60048036038101906107589190611305565b610cd8565b60405161076a9190610f0a565b60405180910390f35b6000683602298b8c10b01230905090565b600081359050919050565b60008160e01c635b5e139f81146380ac58cd82146301ffc9a783141717915050919050565b60606107c56306fdde036000610d20565b905090565b60006107dc63081812fc836000610d7d565b9050919050565b60006107ed610b32565b90508260601b60601c925060405163d10b6e0c600052836020528260405233606052602060006064601c34865af1601f3d111661082d573d6000823e3d81fd5b8060405260006060528284600c5160601c7f8c5be1e5ebec7d5bd14f71427d1e84f3dd0314c0f7b2291e5b200ac8c7c3b925600038a450505050565b600061087b63e2c79281600080610d7d565b905090565b600061088a610b32565b90508360601b60601c93508260601b60601c925060405163e5eb36c881528460208201528360408201528260608201523360808201526020816084601c840134865af16001825114166108e0573d6000823e3d81fd5b8284867fddf252ad1be2c89b69c2b068fc378daa952ba7f163c4a11628f55a4df523b3ef600038a45050505050565b60006109216324359879836000610d7d565b9050919050565b610933838383610880565b61093c82610dc8565b1561095d5761095c83838360405180602001604052806000815250610dd3565b5b505050565b6000610974636352211e836000610d7d565b9050919050565b600080610986610b32565b9050638da5cb5b600052602060006004601c845afa601f3d1116156109ae57600c5160601c91505b60006109b8610773565b905060008160020160009054906101000a900473ffffffffffffffffffffffffffffffffffffffff1690508373ffffffffffffffffffffffffffffffffffffffff168173ffffffffffffffffffffffffffffffffffffffff1614610ab457838260020160006101000a81548173ffffffffffffffffffffffffffffffffffffffff021916908373ffffffffffffffffffffffffffffffffffffffff1602179055508373ffffffffffffffffffffffffffffffffffffffff168173ffffffffffffffffffffffffffffffffffffffff167f8be0079c531659141344cd1fd0a4f28419497f9722a3daafe3b4186f6b6457e060405160405180910390a35b50505050565b6000610ae263f5b100ea8373ffffffffffffffffffffffffffffffffffffffff166000610d7d565b9050919050565b6000610af3610773565b60020160009054906101000a900473ffffffffffffffffffffffffffffffffffffffff16905090565b6060610b2d6395d89b416000610d20565b905090565b6000610b3c610773565b60000160009054906101000a900473ffffffffffffffffffffffffffffffffffffffff169050600073ffffffffffffffffffffffffffffffffffffffff168173ffffffffffffffffffffffffffffffffffffffff1603610bc8576040517f5b2a47ae00000000000000000000000000000000000000000000000000000000815260040160405180910390fd5b90565b6000610bd5610b32565b90508260601b60601c925060405163813500fc6000528360205282151560405233606052602060006064601c34865af160016000511416610c19573d6000823e3d81fd5b83337f17307eab39ab6107e8899845ad3d59bd9653f200f220920489ca2b5937696c3160206040a380604052600060605250505050565b610c5b858585610880565b610c6484610dc8565b15610cba57610cb985858585858080601f016020809104026020016040519081016040528093929190818152602001838380828437600081840152601f19601f82011690508083019250505050505050610dd3565b5b5050505050565b6060610cd163c87b56dd83610d20565b9050919050565b600080610d1663e985e9c58573ffffffffffffffffffffffffffffffffffffffff168573ffffffffffffffffffffffffffffffffffffffff16610d7d565b1415905092915050565b60606000610d2c610b32565b9050604051915083600052826020526000806024601c845afa610d52573d6000833e3d82fd5b60206000803e6020600051833e8151602060005101602084013e815160208301016040525092915050565b600080610d88610b32565b9050604051856000528460205283604052602060006044601c855afa601f3d1116610db6573d6000823e3d81fd5b80604052600051925050509392505050565b6000813b9050919050565b60405163150b7a028082523360208301528560601b60601c604083015283606083015260808083015282518060a08401528015610e1a578060c08401826020870160045afa505b60208360a48301601c860160008a5af1610e3e573d15610e3d573d6000843e3d83fd5b5b8160e01b835114610e575763d1a57ed66000526004601cfd5b50505050505050565b600080fd5b600080fd5b60007fffffffff0000000000000000000000000000000000000000000000000000000082169050919050565b610e9f81610e6a565b8114610eaa57600080fd5b50565b600081359050610ebc81610e96565b92915050565b600060208284031215610ed857610ed7610e60565b5b6000610ee684828501610ead565b91505092915050565b60008115159050919050565b610f0481610eef565b82525050565b6000602082019050610f1f6000830184610efb565b92915050565b600081519050919050565b600082825260208201905092915050565b60005b83811015610f5f578082015181840152602081019050610f44565b60008484015250505050565b6000601f19601f8301169050919050565b6000610f8782610f25565b610f918185610f30565b9350610fa1818560208601610f41565b610faa81610f6b565b840191505092915050565b60006020820190508181036000830152610fcf8184610f7c565b905092915050565b6000819050919050565b610fea81610fd7565b8114610ff557600080fd5b50565b60008135905061100781610fe1565b92915050565b60006020828403121561102357611022610e60565b5b600061103184828501610ff8565b91505092915050565b600073ffffffffffffffffffffffffffffffffffffffff82169050919050565b60006110658261103a565b9050919050565b6110758161105a565b82525050565b6000602082019050611090600083018461106c565b92915050565b61109f8161105a565b81146110aa57600080fd5b50565b6000813590506110bc81611096565b92915050565b600080604083850312156110d9576110d8610e60565b5b60006110e7858286016110ad565b92505060206110f885828601610ff8565b9150509250929050565b61110b81610fd7565b82525050565b60006020820190506111266000830184611102565b92915050565b60008060006060848603121561114557611144610e60565b5b6000611153868287016110ad565b9350506020611164868287016110ad565b925050604061117586828701610ff8565b9150509250925092565b60006020828403121561119557611194610e60565b5b60006111a3848285016110ad565b91505092915050565b6111b581610eef565b81146111c057600080fd5b50565b6000813590506111d2816111ac565b92915050565b600080604083850312156111ef576111ee610e60565b5b60006111fd858286016110ad565b925050602061120e858286016111c3565b9150509250929050565b600080fd5b600080fd5b600080fd5b60008083601f84011261123d5761123c611218565b5b8235905067ffffffffffffffff81111561125a5761125961121d565b5b60208301915083600182028301111561127657611275611222565b5b9250929050565b60008060008060006080868803121561129957611298610e60565b5b60006112a7888289016110ad565b95505060206112b8888289016110ad565b94505060406112c988828901610ff8565b935050606086013567ffffffffffffffff8111156112ea576112e9610e65565b5b6112f688828901611227565b92509250509295509295909350565b6000806040838503121561131c5761131b610e60565b5b600061132a858286016110ad565b925050602061133b858286016110ad565b915050925092905056fea26469706673582212202866c361874f8d4f7d11abb7958102afc5b3eba8f5bca415765537c358787d5264736f6c63430008140033",
  "linkReferences": {},
  "deployedLinkReferences": {}
}